{
  "contractName": "Example_DataType",
  "abi": [
    {
      "inputs": [],
      "stateMutability": "nonpayable",
      "type": "constructor"
    },
    {
      "inputs": [],
      "name": "age",
      "outputs": [
        {
          "internalType": "uint256",
          "name": "",
          "type": "uint256"
        }
      ],
      "stateMutability": "view",
      "type": "function"
    },
    {
      "inputs": [],
      "name": "isActive",
      "outputs": [
        {
          "internalType": "bool",
          "name": "",
          "type": "bool"
        }
      ],
      "stateMutability": "view",
      "type": "function"
    },
    {
      "inputs": [],
      "name": "name",
      "outputs": [
        {
          "internalType": "string",
          "name": "",
          "type": "string"
        }
      ],
      "stateMutability": "view",
      "type": "function"
    },
    {
      "inputs": [],
      "name": "orderStatus",
      "outputs": [
        {
          "internalType": "enum Example_DataType.Status",
          "name": "",
          "type": "uint8"
        }
      ],
      "stateMutability": "view",
      "type": "function"
    },
    {
      "inputs": [],
      "name": "owner",
      "outputs": [
        {
          "internalType": "address",
          "name": "",
          "type": "address"
        }
      ],
      "stateMutability": "view",
      "type": "function"
    },
    {
      "inputs": [
        {
          "internalType": "address",
          "name": "",
          "type": "address"
        }
      ],
      "name": "users",
      "outputs": [
        {
          "internalType": "string",
          "name": "name",
          "type": "string"
        },
        {
          "internalType": "uint256",
          "name": "balance",
          "type": "uint256"
        }
      ],
      "stateMutability": "view",
      "type": "function"
    }
  ],
  "bytecode": "0x608060405260015f806101000a81548160ff02191690831515021790555060196001556040518060400160405280600581526020017f416c69636500000000000000000000000000000000000000000000000000000081525060039081620000689190620003f3565b5034801562000075575f80fd5b503360025f6101000a81548173ffffffffffffffffffffffffffffffffffffffff021916908373ffffffffffffffffffffffffffffffffffffffff16021790555060405180604001604052806040518060400160405280600581526020017f416c6963650000000000000000000000000000000000000000000000000000008152508152602001670de0b6b3a764000081525060055f60025f9054906101000a900473ffffffffffffffffffffffffffffffffffffffff1673ffffffffffffffffffffffffffffffffffffffff1673ffffffffffffffffffffffffffffffffffffffff1681526020019081526020015f205f820151815f0190816200017b9190620003f3565b5060208201518160010155905050620004d7565b5f81519050919050565b7f4e487b71000000000000000000000000000000000000000000000000000000005f52604160045260245ffd5b7f4e487b71000000000000000000000000000000000000000000000000000000005f52602260045260245ffd5b5f60028204905060018216806200020b57607f821691505b602082108103620002215762000220620001c6565b5b50919050565b5f819050815f5260205f209050919050565b5f6020601f8301049050919050565b5f82821b905092915050565b5f60088302620002857fffffffffffffffffffffffffffffffffffffffffffffffffffffffffffffffff8262000248565b62000291868362000248565b95508019841693508086168417925050509392505050565b5f819050919050565b5f819050919050565b5f620002db620002d5620002cf84620002a9565b620002b2565b620002a9565b9050919050565b5f819050919050565b620002f683620002bb565b6200030e6200030582620002e2565b84845462000254565b825550505050565b5f90565b6200032462000316565b62000331818484620002eb565b505050565b5b8181101562000358576200034c5f826200031a565b60018101905062000337565b5050565b601f821115620003a757620003718162000227565b6200037c8462000239565b810160208510156200038c578190505b620003a46200039b8562000239565b83018262000336565b50505b505050565b5f82821c905092915050565b5f620003c95f1984600802620003ac565b1980831691505092915050565b5f620003e38383620003b8565b9150826002028217905092915050565b620003fe826200018f565b67ffffffffffffffff8111156200041a576200041962000199565b5b620004268254620001f3565b620004338282856200035c565b5f60209050601f83116001811462000469575f841562000454578287015190505b620004608582620003d6565b865550620004cf565b601f198416620004798662000227565b5f5b82811015620004a2578489015182556001820191506020850194506020810190506200047b565b86831015620004c25784890151620004be601f891682620003b8565b8355505b6001600288020188555050505b505050505050565b6105b680620004e55f395ff3fe608060405234801561000f575f80fd5b5060043610610060575f3560e01c806306fdde031461006457806322f3e2d414610082578063262a9dff146100a05780632728e28b146100be5780638da5cb5b146100dc578063a87430ba146100fa575b5f80fd5b61006c61012b565b6040516100799190610334565b60405180910390f35b61008a6101b7565b604051610097919061036e565b60405180910390f35b6100a86101c7565b6040516100b5919061039f565b60405180910390f35b6100c66101cd565b6040516100d3919061042b565b60405180910390f35b6100e46101df565b6040516100f19190610483565b60405180910390f35b610114600480360381019061010f91906104ca565b610204565b6040516101229291906104f5565b60405180910390f35b6003805461013890610550565b80601f016020809104026020016040519081016040528092919081815260200182805461016490610550565b80156101af5780601f10610186576101008083540402835291602001916101af565b820191905f5260205f20905b81548152906001019060200180831161019257829003601f168201915b505050505081565b5f8054906101000a900460ff1681565b60015481565b60045f9054906101000a900460ff1681565b60025f9054906101000a900473ffffffffffffffffffffffffffffffffffffffff1681565b6005602052805f5260405f205f91509050805f01805461022390610550565b80601f016020809104026020016040519081016040528092919081815260200182805461024f90610550565b801561029a5780601f106102715761010080835404028352916020019161029a565b820191905f5260205f20905b81548152906001019060200180831161027d57829003601f168201915b5050505050908060010154905082565b5f81519050919050565b5f82825260208201905092915050565b5f5b838110156102e15780820151818401526020810190506102c6565b5f8484015250505050565b5f601f19601f8301169050919050565b5f610306826102aa565b61031081856102b4565b93506103208185602086016102c4565b610329816102ec565b840191505092915050565b5f6020820190508181035f83015261034c81846102fc565b905092915050565b5f8115159050919050565b61036881610354565b82525050565b5f6020820190506103815f83018461035f565b92915050565b5f819050919050565b61039981610387565b82525050565b5f6020820190506103b25f830184610390565b92915050565b7f4e487b71000000000000000000000000000000000000000000000000000000005f52602160045260245ffd5b600381106103f6576103f56103b8565b5b50565b5f819050610406826103e5565b919050565b5f610415826103f9565b9050919050565b6104258161040b565b82525050565b5f60208201905061043e5f83018461041c565b92915050565b5f73ffffffffffffffffffffffffffffffffffffffff82169050919050565b5f61046d82610444565b9050919050565b61047d81610463565b82525050565b5f6020820190506104965f830184610474565b92915050565b5f80fd5b6104a981610463565b81146104b3575f80fd5b50565b5f813590506104c4816104a0565b92915050565b5f602082840312156104df576104de61049c565b5b5f6104ec848285016104b6565b91505092915050565b5f6040820190508181035f83015261050d81856102fc565b905061051c6020830184610390565b9392505050565b7f4e487b71000000000000000000000000000000000000000000000000000000005f52602260045260245ffd5b5f600282049050600182168061056757607f821691505b60208210810361057a57610579610523565b5b5091905056fea264697066735822122028903513135068324ed4005cb43be8e4bc946062e87019fa3f8ceef7ada2920664736f6c63430008140033",
  "immutableReferences": {},
  "source": "// SPDX-License-Identifier: MIT\r\npragma solidity ^0.8.0;\r\n\r\ncontract Example_DataType {\r\n    bool public isActive = true;\r\n    uint public age = 25;\r\n    address public owner;\r\n    string public name = \"Alice\";\r\n\r\n    enum Status { Created, Shipped, Delivered }\r\n    Status public orderStatus;\r\n\r\n    struct User {\r\n        string name;\r\n        uint balance;\r\n    }\r\n\r\n    mapping(address => User) public users;\r\n\r\n    constructor() {\r\n        owner = msg.sender;\r\n        users[owner] = User(\"Alice\", 1 ether); // : uint   \r\n    }\r\n}\r\n",
  "sourcePath": "C:\\Users\\eskim\\Workspace\\Mastering_Ethereum\\ch7\\Truffle\\Ex_DataType\\contracts\\Example_DataType.sol",
  "compiler": {
    "name": "solc",
    "version": "0.8.20+commit.a1b79de6.Emscripten.clang"
  },
  "schemaVersion": "3.4.16",
  "updatedAt": "2025-04-17T02:28:56.564Z",
  "devdoc": {
    "kind": "dev",
    "methods": {},
    "version": 1
  },
  "userdoc": {
    "kind": "user",
    "methods": {},
    "version": 1
  }
}