{
	"contracts/Faucet.sol": {
		"Faucet": {
			"abi": [
				{
					"stateMutability": "payable",
					"type": "fallback"
				},
				{
					"inputs": [
						{
							"internalType": "uint256",
							"name": "withdraw_amount",
							"type": "uint256"
						}
					],
					"name": "withdraw",
					"outputs": [],
					"stateMutability": "nonpayable",
					"type": "function"
				},
				{
					"stateMutability": "payable",
					"type": "receive"
				}
			],
			"devdoc": {
				"kind": "dev",
				"methods": {},
				"version": 1
			},
			"evm": {
				"assembly": "    /* \"contracts/Faucet.sol\":60:553  contract Faucet {... */\n  mstore(0x40, 0x80)\n  callvalue\n  dup1\n  iszero\n  tag_1\n  jumpi\n  0x00\n  dup1\n  revert\ntag_1:\n  pop\n  dataSize(sub_0)\n  dup1\n  dataOffset(sub_0)\n  0x00\n  codecopy\n  0x00\n  return\nstop\n\nsub_0: assembly {\n        /* \"contracts/Faucet.sol\":60:553  contract Faucet {... */\n      mstore(0x40, 0x80)\n      jumpi(tag_1, lt(calldatasize, 0x04))\n      shr(0xe0, calldataload(0x00))\n      dup1\n      0x2e1a7d4d\n      eq\n      tag_3\n      jumpi\n      jump(tag_2)\n    tag_1:\n      jumpi(tag_2, calldatasize)\n      stop\n    tag_2:\n      stop\n        /* \"contracts/Faucet.sol\":131:475  function withdraw(uint withdraw_amount) public {... */\n    tag_3:\n      callvalue\n      dup1\n      iszero\n      tag_8\n      jumpi\n      0x00\n      dup1\n      revert\n    tag_8:\n      pop\n      tag_9\n      0x04\n      dup1\n      calldatasize\n      sub\n      dup2\n      add\n      swap1\n      tag_10\n      swap2\n      swap1\n      tag_11\n      jump\t// in\n    tag_10:\n      tag_12\n      jump\t// in\n    tag_9:\n      stop\n    tag_12:\n        /* \"contracts/Faucet.sol\":112:122  0.01 ether */\n      0x2386f26fc10000\n        /* \"contracts/Faucet.sol\":197:212  withdraw_amount */\n      dup2\n        /* \"contracts/Faucet.sol\":197:228  withdraw_amount <= MAX_WITHDRAW */\n      gt\n      iszero\n        /* \"contracts/Faucet.sol\":189:253  require(withdraw_amount <= MAX_WITHDRAW, \"Amount exceeds limit\") */\n      tag_14\n      jumpi\n      mload(0x40)\n      0x08c379a000000000000000000000000000000000000000000000000000000000\n      dup2\n      mstore\n      0x04\n      add\n      tag_15\n      swap1\n      tag_16\n      jump\t// in\n    tag_15:\n      mload(0x40)\n      dup1\n      swap2\n      sub\n      swap1\n      revert\n    tag_14:\n        /* \"contracts/Faucet.sol\":297:312  withdraw_amount */\n      dup1\n        /* \"contracts/Faucet.sol\":272:293  address(this).balance */\n      selfbalance\n        /* \"contracts/Faucet.sol\":272:312  address(this).balance >= withdraw_amount */\n      lt\n      iszero\n        /* \"contracts/Faucet.sol\":264:337  require(address(this).balance >= withdraw_amount, \"Insufficient balance\") */\n      tag_17\n      jumpi\n      mload(0x40)\n      0x08c379a000000000000000000000000000000000000000000000000000000000\n      dup2\n      mstore\n      0x04\n      add\n      tag_18\n      swap1\n      tag_19\n      jump\t// in\n    tag_18:\n      mload(0x40)\n      dup1\n      swap2\n      sub\n      swap1\n      revert\n    tag_17:\n        /* \"contracts/Faucet.sol\":351:363  bool success */\n      0x00\n        /* \"contracts/Faucet.sol\":377:387  msg.sender */\n      caller\n        /* \"contracts/Faucet.sol\":369:393  payable(msg.sender).call */\n      0xffffffffffffffffffffffffffffffffffffffff\n      and\n        /* \"contracts/Faucet.sol\":401:416  withdraw_amount */\n      dup3\n        /* \"contracts/Faucet.sol\":369:421  payable(msg.sender).call{value: withdraw_amount}(\"\") */\n      mload(0x40)\n      tag_20\n      swap1\n      tag_21\n      jump\t// in\n    tag_20:\n      0x00\n      mload(0x40)\n      dup1\n      dup4\n      sub\n      dup2\n      dup6\n      dup8\n      gas\n      call\n      swap3\n      pop\n      pop\n      pop\n      returndatasize\n      dup1\n      0x00\n      dup2\n      eq\n      tag_24\n      jumpi\n      mload(0x40)\n      swap2\n      pop\n      and(add(returndatasize, 0x3f), not(0x1f))\n      dup3\n      add\n      0x40\n      mstore\n      returndatasize\n      dup3\n      mstore\n      returndatasize\n      0x00\n      0x20\n      dup5\n      add\n      returndatacopy\n      jump(tag_23)\n    tag_24:\n      0x60\n      swap2\n      pop\n    tag_23:\n      pop\n        /* \"contracts/Faucet.sol\":350:421  (bool success, ) = payable(msg.sender).call{value: withdraw_amount}(\"\") */\n      pop\n      swap1\n      pop\n        /* \"contracts/Faucet.sol\":440:447  success */\n      dup1\n        /* \"contracts/Faucet.sol\":432:467  require(success, \"Transfer failed\") */\n      tag_25\n      jumpi\n      mload(0x40)\n      0x08c379a000000000000000000000000000000000000000000000000000000000\n      dup2\n      mstore\n      0x04\n      add\n      tag_26\n      swap1\n      tag_27\n      jump\t// in\n    tag_26:\n      mload(0x40)\n      dup1\n      swap2\n      sub\n      swap1\n      revert\n    tag_25:\n        /* \"contracts/Faucet.sol\":178:475  {... */\n      pop\n        /* \"contracts/Faucet.sol\":131:475  function withdraw(uint withdraw_amount) public {... */\n      pop\n      jump\t// out\n        /* \"#utility.yul\":88:205   */\n    tag_29:\n        /* \"#utility.yul\":197:198   */\n      0x00\n        /* \"#utility.yul\":194:195   */\n      dup1\n        /* \"#utility.yul\":187:199   */\n      revert\n        /* \"#utility.yul\":334:411   */\n    tag_31:\n        /* \"#utility.yul\":371:378   */\n      0x00\n        /* \"#utility.yul\":400:405   */\n      dup2\n        /* \"#utility.yul\":389:405   */\n      swap1\n      pop\n        /* \"#utility.yul\":334:411   */\n      swap2\n      swap1\n      pop\n      jump\t// out\n        /* \"#utility.yul\":417:539   */\n    tag_32:\n        /* \"#utility.yul\":490:514   */\n      tag_50\n        /* \"#utility.yul\":508:513   */\n      dup2\n        /* \"#utility.yul\":490:514   */\n      tag_31\n      jump\t// in\n    tag_50:\n        /* \"#utility.yul\":483:488   */\n      dup2\n        /* \"#utility.yul\":480:515   */\n      eq\n        /* \"#utility.yul\":470:533   */\n      tag_51\n      jumpi\n        /* \"#utility.yul\":529:530   */\n      0x00\n        /* \"#utility.yul\":526:527   */\n      dup1\n        /* \"#utility.yul\":519:531   */\n      revert\n        /* \"#utility.yul\":470:533   */\n    tag_51:\n        /* \"#utility.yul\":417:539   */\n      pop\n      jump\t// out\n        /* \"#utility.yul\":545:684   */\n    tag_33:\n        /* \"#utility.yul\":591:596   */\n      0x00\n        /* \"#utility.yul\":629:635   */\n      dup2\n        /* \"#utility.yul\":616:636   */\n      calldataload\n        /* \"#utility.yul\":607:636   */\n      swap1\n      pop\n        /* \"#utility.yul\":645:678   */\n      tag_53\n        /* \"#utility.yul\":672:677   */\n      dup2\n        /* \"#utility.yul\":645:678   */\n      tag_32\n      jump\t// in\n    tag_53:\n        /* \"#utility.yul\":545:684   */\n      swap3\n      swap2\n      pop\n      pop\n      jump\t// out\n        /* \"#utility.yul\":690:1019   */\n    tag_11:\n        /* \"#utility.yul\":749:755   */\n      0x00\n        /* \"#utility.yul\":798:800   */\n      0x20\n        /* \"#utility.yul\":786:795   */\n      dup3\n        /* \"#utility.yul\":777:784   */\n      dup5\n        /* \"#utility.yul\":773:796   */\n      sub\n        /* \"#utility.yul\":769:801   */\n      slt\n        /* \"#utility.yul\":766:885   */\n      iszero\n      tag_55\n      jumpi\n        /* \"#utility.yul\":804:883   */\n      tag_56\n      tag_29\n      jump\t// in\n    tag_56:\n        /* \"#utility.yul\":766:885   */\n    tag_55:\n        /* \"#utility.yul\":924:925   */\n      0x00\n        /* \"#utility.yul\":949:1002   */\n      tag_57\n        /* \"#utility.yul\":994:1001   */\n      dup5\n        /* \"#utility.yul\":985:991   */\n      dup3\n        /* \"#utility.yul\":974:983   */\n      dup6\n        /* \"#utility.yul\":970:992   */\n      add\n        /* \"#utility.yul\":949:1002   */\n      tag_33\n      jump\t// in\n    tag_57:\n        /* \"#utility.yul\":939:1002   */\n      swap2\n      pop\n        /* \"#utility.yul\":895:1012   */\n      pop\n        /* \"#utility.yul\":690:1019   */\n      swap3\n      swap2\n      pop\n      pop\n      jump\t// out\n        /* \"#utility.yul\":1025:1194   */\n    tag_34:\n        /* \"#utility.yul\":1109:1120   */\n      0x00\n        /* \"#utility.yul\":1143:1149   */\n      dup3\n        /* \"#utility.yul\":1138:1141   */\n      dup3\n        /* \"#utility.yul\":1131:1150   */\n      mstore\n        /* \"#utility.yul\":1183:1187   */\n      0x20\n        /* \"#utility.yul\":1178:1181   */\n      dup3\n        /* \"#utility.yul\":1174:1188   */\n      add\n        /* \"#utility.yul\":1159:1188   */\n      swap1\n      pop\n        /* \"#utility.yul\":1025:1194   */\n      swap3\n      swap2\n      pop\n      pop\n      jump\t// out\n        /* \"#utility.yul\":1200:1370   */\n    tag_35:\n        /* \"#utility.yul\":1340:1362   */\n      0x416d6f756e742065786365656473206c696d6974000000000000000000000000\n        /* \"#utility.yul\":1336:1337   */\n      0x00\n        /* \"#utility.yul\":1328:1334   */\n      dup3\n        /* \"#utility.yul\":1324:1338   */\n      add\n        /* \"#utility.yul\":1317:1363   */\n      mstore\n        /* \"#utility.yul\":1200:1370   */\n      pop\n      jump\t// out\n        /* \"#utility.yul\":1376:1742   */\n    tag_36:\n        /* \"#utility.yul\":1518:1521   */\n      0x00\n        /* \"#utility.yul\":1539:1606   */\n      tag_61\n        /* \"#utility.yul\":1603:1605   */\n      0x14\n        /* \"#utility.yul\":1598:1601   */\n      dup4\n        /* \"#utility.yul\":1539:1606   */\n      tag_34\n      jump\t// in\n    tag_61:\n        /* \"#utility.yul\":1532:1606   */\n      swap2\n      pop\n        /* \"#utility.yul\":1615:1708   */\n      tag_62\n        /* \"#utility.yul\":1704:1707   */\n      dup3\n        /* \"#utility.yul\":1615:1708   */\n      tag_35\n      jump\t// in\n    tag_62:\n        /* \"#utility.yul\":1733:1735   */\n      0x20\n        /* \"#utility.yul\":1728:1731   */\n      dup3\n        /* \"#utility.yul\":1724:1736   */\n      add\n        /* \"#utility.yul\":1717:1736   */\n      swap1\n      pop\n        /* \"#utility.yul\":1376:1742   */\n      swap2\n      swap1\n      pop\n      jump\t// out\n        /* \"#utility.yul\":1748:2167   */\n    tag_16:\n        /* \"#utility.yul\":1914:1918   */\n      0x00\n        /* \"#utility.yul\":1952:1954   */\n      0x20\n        /* \"#utility.yul\":1941:1950   */\n      dup3\n        /* \"#utility.yul\":1937:1955   */\n      add\n        /* \"#utility.yul\":1929:1955   */\n      swap1\n      pop\n        /* \"#utility.yul\":2001:2010   */\n      dup2\n        /* \"#utility.yul\":1995:1999   */\n      dup2\n        /* \"#utility.yul\":1991:2011   */\n      sub\n        /* \"#utility.yul\":1987:1988   */\n      0x00\n        /* \"#utility.yul\":1976:1985   */\n      dup4\n        /* \"#utility.yul\":1972:1989   */\n      add\n        /* \"#utility.yul\":1965:2012   */\n      mstore\n        /* \"#utility.yul\":2029:2160   */\n      tag_64\n        /* \"#utility.yul\":2155:2159   */\n      dup2\n        /* \"#utility.yul\":2029:2160   */\n      tag_36\n      jump\t// in\n    tag_64:\n        /* \"#utility.yul\":2021:2160   */\n      swap1\n      pop\n        /* \"#utility.yul\":1748:2167   */\n      swap2\n      swap1\n      pop\n      jump\t// out\n        /* \"#utility.yul\":2173:2343   */\n    tag_37:\n        /* \"#utility.yul\":2313:2335   */\n      0x496e73756666696369656e742062616c616e6365000000000000000000000000\n        /* \"#utility.yul\":2309:2310   */\n      0x00\n        /* \"#utility.yul\":2301:2307   */\n      dup3\n        /* \"#utility.yul\":2297:2311   */\n      add\n        /* \"#utility.yul\":2290:2336   */\n      mstore\n        /* \"#utility.yul\":2173:2343   */\n      pop\n      jump\t// out\n        /* \"#utility.yul\":2349:2715   */\n    tag_38:\n        /* \"#utility.yul\":2491:2494   */\n      0x00\n        /* \"#utility.yul\":2512:2579   */\n      tag_67\n        /* \"#utility.yul\":2576:2578   */\n      0x14\n        /* \"#utility.yul\":2571:2574   */\n      dup4\n        /* \"#utility.yul\":2512:2579   */\n      tag_34\n      jump\t// in\n    tag_67:\n        /* \"#utility.yul\":2505:2579   */\n      swap2\n      pop\n        /* \"#utility.yul\":2588:2681   */\n      tag_68\n        /* \"#utility.yul\":2677:2680   */\n      dup3\n        /* \"#utility.yul\":2588:2681   */\n      tag_37\n      jump\t// in\n    tag_68:\n        /* \"#utility.yul\":2706:2708   */\n      0x20\n        /* \"#utility.yul\":2701:2704   */\n      dup3\n        /* \"#utility.yul\":2697:2709   */\n      add\n        /* \"#utility.yul\":2690:2709   */\n      swap1\n      pop\n        /* \"#utility.yul\":2349:2715   */\n      swap2\n      swap1\n      pop\n      jump\t// out\n        /* \"#utility.yul\":2721:3140   */\n    tag_19:\n        /* \"#utility.yul\":2887:2891   */\n      0x00\n        /* \"#utility.yul\":2925:2927   */\n      0x20\n        /* \"#utility.yul\":2914:2923   */\n      dup3\n        /* \"#utility.yul\":2910:2928   */\n      add\n        /* \"#utility.yul\":2902:2928   */\n      swap1\n      pop\n        /* \"#utility.yul\":2974:2983   */\n      dup2\n        /* \"#utility.yul\":2968:2972   */\n      dup2\n        /* \"#utility.yul\":2964:2984   */\n      sub\n        /* \"#utility.yul\":2960:2961   */\n      0x00\n        /* \"#utility.yul\":2949:2958   */\n      dup4\n        /* \"#utility.yul\":2945:2962   */\n      add\n        /* \"#utility.yul\":2938:2985   */\n      mstore\n        /* \"#utility.yul\":3002:3133   */\n      tag_70\n        /* \"#utility.yul\":3128:3132   */\n      dup2\n        /* \"#utility.yul\":3002:3133   */\n      tag_38\n      jump\t// in\n    tag_70:\n        /* \"#utility.yul\":2994:3133   */\n      swap1\n      pop\n        /* \"#utility.yul\":2721:3140   */\n      swap2\n      swap1\n      pop\n      jump\t// out\n        /* \"#utility.yul\":3146:3293   */\n    tag_39:\n        /* \"#utility.yul\":3247:3258   */\n      0x00\n        /* \"#utility.yul\":3284:3287   */\n      dup2\n        /* \"#utility.yul\":3269:3287   */\n      swap1\n      pop\n        /* \"#utility.yul\":3146:3293   */\n      swap3\n      swap2\n      pop\n      pop\n      jump\t// out\n        /* \"#utility.yul\":3299:3413   */\n    tag_40:\n      pop\n      jump\t// out\n        /* \"#utility.yul\":3419:3817   */\n    tag_41:\n        /* \"#utility.yul\":3578:3581   */\n      0x00\n        /* \"#utility.yul\":3599:3682   */\n      tag_74\n        /* \"#utility.yul\":3680:3681   */\n      0x00\n        /* \"#utility.yul\":3675:3678   */\n      dup4\n        /* \"#utility.yul\":3599:3682   */\n      tag_39\n      jump\t// in\n    tag_74:\n        /* \"#utility.yul\":3592:3682   */\n      swap2\n      pop\n        /* \"#utility.yul\":3691:3784   */\n      tag_75\n        /* \"#utility.yul\":3780:3783   */\n      dup3\n        /* \"#utility.yul\":3691:3784   */\n      tag_40\n      jump\t// in\n    tag_75:\n        /* \"#utility.yul\":3809:3810   */\n      0x00\n        /* \"#utility.yul\":3804:3807   */\n      dup3\n        /* \"#utility.yul\":3800:3811   */\n      add\n        /* \"#utility.yul\":3793:3811   */\n      swap1\n      pop\n        /* \"#utility.yul\":3419:3817   */\n      swap2\n      swap1\n      pop\n      jump\t// out\n        /* \"#utility.yul\":3823:4202   */\n    tag_21:\n        /* \"#utility.yul\":4007:4010   */\n      0x00\n        /* \"#utility.yul\":4029:4176   */\n      tag_77\n        /* \"#utility.yul\":4172:4175   */\n      dup3\n        /* \"#utility.yul\":4029:4176   */\n      tag_41\n      jump\t// in\n    tag_77:\n        /* \"#utility.yul\":4022:4176   */\n      swap2\n      pop\n        /* \"#utility.yul\":4193:4196   */\n      dup2\n        /* \"#utility.yul\":4186:4196   */\n      swap1\n      pop\n        /* \"#utility.yul\":3823:4202   */\n      swap2\n      swap1\n      pop\n      jump\t// out\n        /* \"#utility.yul\":4208:4373   */\n    tag_42:\n        /* \"#utility.yul\":4348:4365   */\n      0x5472616e73666572206661696c65640000000000000000000000000000000000\n        /* \"#utility.yul\":4344:4345   */\n      0x00\n        /* \"#utility.yul\":4336:4342   */\n      dup3\n        /* \"#utility.yul\":4332:4346   */\n      add\n        /* \"#utility.yul\":4325:4366   */\n      mstore\n        /* \"#utility.yul\":4208:4373   */\n      pop\n      jump\t// out\n        /* \"#utility.yul\":4379:4745   */\n    tag_43:\n        /* \"#utility.yul\":4521:4524   */\n      0x00\n        /* \"#utility.yul\":4542:4609   */\n      tag_80\n        /* \"#utility.yul\":4606:4608   */\n      0x0f\n        /* \"#utility.yul\":4601:4604   */\n      dup4\n        /* \"#utility.yul\":4542:4609   */\n      tag_34\n      jump\t// in\n    tag_80:\n        /* \"#utility.yul\":4535:4609   */\n      swap2\n      pop\n        /* \"#utility.yul\":4618:4711   */\n      tag_81\n        /* \"#utility.yul\":4707:4710   */\n      dup3\n        /* \"#utility.yul\":4618:4711   */\n      tag_42\n      jump\t// in\n    tag_81:\n        /* \"#utility.yul\":4736:4738   */\n      0x20\n        /* \"#utility.yul\":4731:4734   */\n      dup3\n        /* \"#utility.yul\":4727:4739   */\n      add\n        /* \"#utility.yul\":4720:4739   */\n      swap1\n      pop\n        /* \"#utility.yul\":4379:4745   */\n      swap2\n      swap1\n      pop\n      jump\t// out\n        /* \"#utility.yul\":4751:5170   */\n    tag_27:\n        /* \"#utility.yul\":4917:4921   */\n      0x00\n        /* \"#utility.yul\":4955:4957   */\n      0x20\n        /* \"#utility.yul\":4944:4953   */\n      dup3\n        /* \"#utility.yul\":4940:4958   */\n      add\n        /* \"#utility.yul\":4932:4958   */\n      swap1\n      pop\n        /* \"#utility.yul\":5004:5013   */\n      dup2\n        /* \"#utility.yul\":4998:5002   */\n      dup2\n        /* \"#utility.yul\":4994:5014   */\n      sub\n        /* \"#utility.yul\":4990:4991   */\n      0x00\n        /* \"#utility.yul\":4979:4988   */\n      dup4\n        /* \"#utility.yul\":4975:4992   */\n      add\n        /* \"#utility.yul\":4968:5015   */\n      mstore\n        /* \"#utility.yul\":5032:5163   */\n      tag_83\n        /* \"#utility.yul\":5158:5162   */\n      dup2\n        /* \"#utility.yul\":5032:5163   */\n      tag_43\n      jump\t// in\n    tag_83:\n        /* \"#utility.yul\":5024:5163   */\n      swap1\n      pop\n        /* \"#utility.yul\":4751:5170   */\n      swap2\n      swap1\n      pop\n      jump\t// out\n\n    auxdata: 0xa2646970667358221220cf412027ac17b9e767f14651a2f753142fee4101c0ab9695741a78c52a8c45a964736f6c634300081a0033\n}\n",
				"bytecode": {
					"linkReferences": {},
					"object": "6080604052348015600e575f80fd5b506103ac8061001c5f395ff3fe608060405260043610610021575f3560e01c80632e1a7d4d1461002a57610028565b3661002857005b005b348015610035575f80fd5b50610050600480360381019061004b91906101c2565b610052565b005b662386f26fc1000081111561009c576040517f08c379a000000000000000000000000000000000000000000000000000000000815260040161009390610247565b60405180910390fd5b804710156100df576040517f08c379a00000000000000000000000000000000000000000000000000000000081526004016100d6906102af565b60405180910390fd5b5f3373ffffffffffffffffffffffffffffffffffffffff1682604051610104906102fa565b5f6040518083038185875af1925050503d805f811461013e576040519150601f19603f3d011682016040523d82523d5f602084013e610143565b606091505b5050905080610187576040517f08c379a000000000000000000000000000000000000000000000000000000000815260040161017e90610358565b60405180910390fd5b5050565b5f80fd5b5f819050919050565b6101a18161018f565b81146101ab575f80fd5b50565b5f813590506101bc81610198565b92915050565b5f602082840312156101d7576101d661018b565b5b5f6101e4848285016101ae565b91505092915050565b5f82825260208201905092915050565b7f416d6f756e742065786365656473206c696d69740000000000000000000000005f82015250565b5f6102316014836101ed565b915061023c826101fd565b602082019050919050565b5f6020820190508181035f83015261025e81610225565b9050919050565b7f496e73756666696369656e742062616c616e63650000000000000000000000005f82015250565b5f6102996014836101ed565b91506102a482610265565b602082019050919050565b5f6020820190508181035f8301526102c68161028d565b9050919050565b5f81905092915050565b50565b5f6102e55f836102cd565b91506102f0826102d7565b5f82019050919050565b5f610304826102da565b9150819050919050565b7f5472616e73666572206661696c656400000000000000000000000000000000005f82015250565b5f610342600f836101ed565b915061034d8261030e565b602082019050919050565b5f6020820190508181035f83015261036f81610336565b905091905056fea2646970667358221220cf412027ac17b9e767f14651a2f753142fee4101c0ab9695741a78c52a8c45a964736f6c634300081a0033",
					"opcodes": "PUSH1 0x80 PUSH1 0x40 MSTORE CALLVALUE DUP1 ISZERO PUSH1 0xE JUMPI PUSH0 DUP1 REVERT JUMPDEST POP PUSH2 0x3AC DUP1 PUSH2 0x1C PUSH0 CODECOPY PUSH0 RETURN INVALID PUSH1 0x80 PUSH1 0x40 MSTORE PUSH1 0x4 CALLDATASIZE LT PUSH2 0x21 JUMPI PUSH0 CALLDATALOAD PUSH1 0xE0 SHR DUP1 PUSH4 0x2E1A7D4D EQ PUSH2 0x2A JUMPI PUSH2 0x28 JUMP JUMPDEST CALLDATASIZE PUSH2 0x28 JUMPI STOP JUMPDEST STOP JUMPDEST CALLVALUE DUP1 ISZERO PUSH2 0x35 JUMPI PUSH0 DUP1 REVERT JUMPDEST POP PUSH2 0x50 PUSH1 0x4 DUP1 CALLDATASIZE SUB DUP2 ADD SWAP1 PUSH2 0x4B SWAP2 SWAP1 PUSH2 0x1C2 JUMP JUMPDEST PUSH2 0x52 JUMP JUMPDEST STOP JUMPDEST PUSH7 0x2386F26FC10000 DUP2 GT ISZERO PUSH2 0x9C JUMPI PUSH1 0x40 MLOAD PUSH32 0x8C379A000000000000000000000000000000000000000000000000000000000 DUP2 MSTORE PUSH1 0x4 ADD PUSH2 0x93 SWAP1 PUSH2 0x247 JUMP JUMPDEST PUSH1 0x40 MLOAD DUP1 SWAP2 SUB SWAP1 REVERT JUMPDEST DUP1 SELFBALANCE LT ISZERO PUSH2 0xDF JUMPI PUSH1 0x40 MLOAD PUSH32 0x8C379A000000000000000000000000000000000000000000000000000000000 DUP2 MSTORE PUSH1 0x4 ADD PUSH2 0xD6 SWAP1 PUSH2 0x2AF JUMP JUMPDEST PUSH1 0x40 MLOAD DUP1 SWAP2 SUB SWAP1 REVERT JUMPDEST PUSH0 CALLER PUSH20 0xFFFFFFFFFFFFFFFFFFFFFFFFFFFFFFFFFFFFFFFF AND DUP3 PUSH1 0x40 MLOAD PUSH2 0x104 SWAP1 PUSH2 0x2FA JUMP JUMPDEST PUSH0 PUSH1 0x40 MLOAD DUP1 DUP4 SUB DUP2 DUP6 DUP8 GAS CALL SWAP3 POP POP POP RETURNDATASIZE DUP1 PUSH0 DUP2 EQ PUSH2 0x13E JUMPI PUSH1 0x40 MLOAD SWAP2 POP PUSH1 0x1F NOT PUSH1 0x3F RETURNDATASIZE ADD AND DUP3 ADD PUSH1 0x40 MSTORE RETURNDATASIZE DUP3 MSTORE RETURNDATASIZE PUSH0 PUSH1 0x20 DUP5 ADD RETURNDATACOPY PUSH2 0x143 JUMP JUMPDEST PUSH1 0x60 SWAP2 POP JUMPDEST POP POP SWAP1 POP DUP1 PUSH2 0x187 JUMPI PUSH1 0x40 MLOAD PUSH32 0x8C379A000000000000000000000000000000000000000000000000000000000 DUP2 MSTORE PUSH1 0x4 ADD PUSH2 0x17E SWAP1 PUSH2 0x358 JUMP JUMPDEST PUSH1 0x40 MLOAD DUP1 SWAP2 SUB SWAP1 REVERT JUMPDEST POP POP JUMP JUMPDEST PUSH0 DUP1 REVERT JUMPDEST PUSH0 DUP2 SWAP1 POP SWAP2 SWAP1 POP JUMP JUMPDEST PUSH2 0x1A1 DUP2 PUSH2 0x18F JUMP JUMPDEST DUP2 EQ PUSH2 0x1AB JUMPI PUSH0 DUP1 REVERT JUMPDEST POP JUMP JUMPDEST PUSH0 DUP2 CALLDATALOAD SWAP1 POP PUSH2 0x1BC DUP2 PUSH2 0x198 JUMP JUMPDEST SWAP3 SWAP2 POP POP JUMP JUMPDEST PUSH0 PUSH1 0x20 DUP3 DUP5 SUB SLT ISZERO PUSH2 0x1D7 JUMPI PUSH2 0x1D6 PUSH2 0x18B JUMP JUMPDEST JUMPDEST PUSH0 PUSH2 0x1E4 DUP5 DUP3 DUP6 ADD PUSH2 0x1AE JUMP JUMPDEST SWAP2 POP POP SWAP3 SWAP2 POP POP JUMP JUMPDEST PUSH0 DUP3 DUP3 MSTORE PUSH1 0x20 DUP3 ADD SWAP1 POP SWAP3 SWAP2 POP POP JUMP JUMPDEST PUSH32 0x416D6F756E742065786365656473206C696D6974000000000000000000000000 PUSH0 DUP3 ADD MSTORE POP JUMP JUMPDEST PUSH0 PUSH2 0x231 PUSH1 0x14 DUP4 PUSH2 0x1ED JUMP JUMPDEST SWAP2 POP PUSH2 0x23C DUP3 PUSH2 0x1FD JUMP JUMPDEST PUSH1 0x20 DUP3 ADD SWAP1 POP SWAP2 SWAP1 POP JUMP JUMPDEST PUSH0 PUSH1 0x20 DUP3 ADD SWAP1 POP DUP2 DUP2 SUB PUSH0 DUP4 ADD MSTORE PUSH2 0x25E DUP2 PUSH2 0x225 JUMP JUMPDEST SWAP1 POP SWAP2 SWAP1 POP JUMP JUMPDEST PUSH32 0x496E73756666696369656E742062616C616E6365000000000000000000000000 PUSH0 DUP3 ADD MSTORE POP JUMP JUMPDEST PUSH0 PUSH2 0x299 PUSH1 0x14 DUP4 PUSH2 0x1ED JUMP JUMPDEST SWAP2 POP PUSH2 0x2A4 DUP3 PUSH2 0x265 JUMP JUMPDEST PUSH1 0x20 DUP3 ADD SWAP1 POP SWAP2 SWAP1 POP JUMP JUMPDEST PUSH0 PUSH1 0x20 DUP3 ADD SWAP1 POP DUP2 DUP2 SUB PUSH0 DUP4 ADD MSTORE PUSH2 0x2C6 DUP2 PUSH2 0x28D JUMP JUMPDEST SWAP1 POP SWAP2 SWAP1 POP JUMP JUMPDEST PUSH0 DUP2 SWAP1 POP SWAP3 SWAP2 POP POP JUMP JUMPDEST POP JUMP JUMPDEST PUSH0 PUSH2 0x2E5 PUSH0 DUP4 PUSH2 0x2CD JUMP JUMPDEST SWAP2 POP PUSH2 0x2F0 DUP3 PUSH2 0x2D7 JUMP JUMPDEST PUSH0 DUP3 ADD SWAP1 POP SWAP2 SWAP1 POP JUMP JUMPDEST PUSH0 PUSH2 0x304 DUP3 PUSH2 0x2DA JUMP JUMPDEST SWAP2 POP DUP2 SWAP1 POP SWAP2 SWAP1 POP JUMP JUMPDEST PUSH32 0x5472616E73666572206661696C65640000000000000000000000000000000000 PUSH0 DUP3 ADD MSTORE POP JUMP JUMPDEST PUSH0 PUSH2 0x342 PUSH1 0xF DUP4 PUSH2 0x1ED JUMP JUMPDEST SWAP2 POP PUSH2 0x34D DUP3 PUSH2 0x30E JUMP JUMPDEST PUSH1 0x20 DUP3 ADD SWAP1 POP SWAP2 SWAP1 POP JUMP JUMPDEST PUSH0 PUSH1 0x20 DUP3 ADD SWAP1 POP DUP2 DUP2 SUB PUSH0 DUP4 ADD MSTORE PUSH2 0x36F DUP2 PUSH2 0x336 JUMP JUMPDEST SWAP1 POP SWAP2 SWAP1 POP JUMP INVALID LOG2 PUSH5 0x6970667358 0x22 SLT KECCAK256 0xCF COINBASE KECCAK256 0x27 0xAC OR 0xB9 0xE7 PUSH8 0xF14651A2F753142F 0xEE COINBASE ADD 0xC0 0xAB SWAP7 SWAP6 PUSH21 0x1A78C52A8C45A964736F6C634300081A0033000000 "
				},
				"gasEstimates": {
					"creation": {
						"codeDepositCost": "188000",
						"executionCost": "230",
						"totalCost": "188230"
					},
					"external": {
						"": "84",
						"withdraw(uint256)": "infinite"
					}
				},
				"methodIdentifiers": {
					"withdraw(uint256)": "2e1a7d4d"
				}
			},
			"storageLayout": {
				"storage": [],
				"types": null
			},
			"userdoc": {
				"kind": "user",
				"methods": {},
				"version": 1
			}
		}
	}
}