{
  "contractName": "Caller",
  "abi": [
    {
      "inputs": [
        {
          "internalType": "address",
          "name": "_calledContractAddress",
          "type": "address"
        }
      ],
      "name": "makeCalls",
      "outputs": [],
      "stateMutability": "nonpayable",
      "type": "function"
    }
  ],
  "bytecode": "0x608060405234801561000f575f80fd5b5061057a8061001d5f395ff3fe608060405234801561000f575f80fd5b5060043610610029575f3560e01c8063444c35df1461002d575b5f80fd5b610047600480360381019061004291906103b7565b610049565b005b5f8190508073ffffffffffffffffffffffffffffffffffffffff16630d8ea1806040518163ffffffff1660e01b81526004015f604051808303815f87803b158015610092575f80fd5b505af11580156100a4573d5f803e3d5ffd5b5050505073__CalledLibrary_________________________630d8ea1806040518163ffffffff1660e01b81526004015f6040518083038186803b1580156100ea575f80fd5b505af41580156100fc573d5f803e3d5ffd5b505050505f8273ffffffffffffffffffffffffffffffffffffffff166040516024016040516020818303038152906040527f0d8ea180000000000000000000000000000000000000000000000000000000007bffffffffffffffffffffffffffffffffffffffffffffffffffffffff19166020820180517bffffffffffffffffffffffffffffffffffffffffffffffffffffffff83818316178352505050506040516101a8919061044e565b5f604051808303815f865af19150503d805f81146101e1576040519150601f19603f3d011682016040523d82523d5f602084013e6101e6565b606091505b505090508061022a576040517f08c379a0000000000000000000000000000000000000000000000000000000008152600401610221906104be565b60405180910390fd5b5f8373ffffffffffffffffffffffffffffffffffffffff166040516024016040516020818303038152906040527f0d8ea180000000000000000000000000000000000000000000000000000000007bffffffffffffffffffffffffffffffffffffffffffffffffffffffff19166020820180517bffffffffffffffffffffffffffffffffffffffffffffffffffffffff83818316178352505050506040516102d2919061044e565b5f60405180830381855af49150503d805f811461030a576040519150601f19603f3d011682016040523d82523d5f602084013e61030f565b606091505b5050905080610353576040517f08c379a000000000000000000000000000000000000000000000000000000000815260040161034a90610526565b60405180910390fd5b50505050565b5f80fd5b5f73ffffffffffffffffffffffffffffffffffffffff82169050919050565b5f6103868261035d565b9050919050565b6103968161037c565b81146103a0575f80fd5b50565b5f813590506103b18161038d565b92915050565b5f602082840312156103cc576103cb610359565b5b5f6103d9848285016103a3565b91505092915050565b5f81519050919050565b5f81905092915050565b5f5b838110156104135780820151818401526020810190506103f8565b5f8484015250505050565b5f610428826103e2565b61043281856103ec565b93506104428185602086016103f6565b80840191505092915050565b5f610459828461041e565b915081905092915050565b5f82825260208201905092915050565b7f63616c6c206661696c65640000000000000000000000000000000000000000005f82015250565b5f6104a8600b83610464565b91506104b382610474565b602082019050919050565b5f6020820190508181035f8301526104d58161049c565b9050919050565b7f64656c656761746563616c6c206661696c6564000000000000000000000000005f82015250565b5f610510601383610464565b915061051b826104dc565b602082019050919050565b5f6020820190508181035f83015261053d81610504565b905091905056fea2646970667358221220de1ae48d2231edb7f81202b9e42c4ce87c4bd72b773db6507746aefb03b2efa864736f6c63430008140033",
  "immutableReferences": {},
  "source": "// SPDX-License-Identifier: MIT\r\npragma solidity ^0.8.0;\r\n\r\ncontract CalledContract {\r\n    event CallEvent(address sender, address origin, address current);\r\n\r\n    function calledFunction() public {\r\n        emit CallEvent(msg.sender, tx.origin, address(this));\r\n    }\r\n}\r\n\r\nlibrary CalledLibrary {\r\n    event CallEvent(address sender, address origin, address current);\r\n\r\n    function calledFunction() public {\r\n        emit CallEvent(msg.sender, tx.origin, address(this));\r\n    }\r\n}\r\n\r\ncontract Caller {\r\n    function makeCalls(address _calledContractAddress) public {\r\n        //  \r\n        CalledContract called = CalledContract(_calledContractAddress);\r\n\r\n        // 1.   \r\n        called.calledFunction();\r\n\r\n        // 2.    (       )\r\n        CalledLibrary.calledFunction();\r\n\r\n        // 3. Low-level call\r\n        (bool success1, ) = _calledContractAddress.call(\r\n            abi.encodeWithSignature(\"calledFunction()\")\r\n        );\r\n        require(success1, \"call failed\");\r\n\r\n        // 4. delegatecall\r\n        (bool success2, ) = _calledContractAddress.delegatecall(\r\n            abi.encodeWithSignature(\"calledFunction()\")\r\n        );\r\n        require(success2, \"delegatecall failed\");\r\n    }\r\n}\r\n",
  "sourcePath": "C:\\Users\\eskim\\Workspace\\Mastering_Ethereum\\ch7\\Truffle\\contracts\\CallExample.sol",
  "compiler": {
    "name": "solc",
    "version": "0.8.20+commit.a1b79de6.Emscripten.clang"
  },
  "schemaVersion": "3.4.16",
  "updatedAt": "2025-04-17T09:29:19.504Z",
  "networkType": "ethereum",
  "devdoc": {
    "kind": "dev",
    "methods": {},
    "version": 1
  },
  "userdoc": {
    "kind": "user",
    "methods": {},
    "version": 1
  }
}