{
  "contractName": "AuctionRepository",
  "abi": [
    {
      "anonymous": false,
      "inputs": [
        {
          "indexed": true,
          "internalType": "address",
          "name": "owner",
          "type": "address"
        },
        {
          "indexed": true,
          "internalType": "uint256",
          "name": "auctionId",
          "type": "uint256"
        }
      ],
      "name": "AuctionCanceled",
      "type": "event"
    },
    {
      "anonymous": false,
      "inputs": [
        {
          "indexed": true,
          "internalType": "address",
          "name": "owner",
          "type": "address"
        },
        {
          "indexed": true,
          "internalType": "uint256",
          "name": "auctionId",
          "type": "uint256"
        }
      ],
      "name": "AuctionCreated",
      "type": "event"
    },
    {
      "anonymous": false,
      "inputs": [
        {
          "indexed": true,
          "internalType": "address",
          "name": "sender",
          "type": "address"
        },
        {
          "indexed": true,
          "internalType": "uint256",
          "name": "auctionId",
          "type": "uint256"
        }
      ],
      "name": "AuctionFinalized",
      "type": "event"
    },
    {
      "anonymous": false,
      "inputs": [
        {
          "indexed": true,
          "internalType": "address",
          "name": "from",
          "type": "address"
        },
        {
          "indexed": true,
          "internalType": "uint256",
          "name": "auctionId",
          "type": "uint256"
        }
      ],
      "name": "BidSuccess",
      "type": "event"
    },
    {
      "inputs": [
        {
          "internalType": "uint256",
          "name": "",
          "type": "uint256"
        },
        {
          "internalType": "uint256",
          "name": "",
          "type": "uint256"
        }
      ],
      "name": "auctionBids",
      "outputs": [
        {
          "internalType": "address payable",
          "name": "from",
          "type": "address"
        },
        {
          "internalType": "uint256",
          "name": "amount",
          "type": "uint256"
        }
      ],
      "stateMutability": "view",
      "type": "function",
      "constant": true
    },
    {
      "inputs": [
        {
          "internalType": "address",
          "name": "",
          "type": "address"
        },
        {
          "internalType": "uint256",
          "name": "",
          "type": "uint256"
        }
      ],
      "name": "auctionOwner",
      "outputs": [
        {
          "internalType": "uint256",
          "name": "",
          "type": "uint256"
        }
      ],
      "stateMutability": "view",
      "type": "function",
      "constant": true
    },
    {
      "inputs": [
        {
          "internalType": "uint256",
          "name": "",
          "type": "uint256"
        }
      ],
      "name": "auctions",
      "outputs": [
        {
          "internalType": "string",
          "name": "name",
          "type": "string"
        },
        {
          "internalType": "uint256",
          "name": "blockDeadline",
          "type": "uint256"
        },
        {
          "internalType": "uint256",
          "name": "startPrice",
          "type": "uint256"
        },
        {
          "internalType": "string",
          "name": "metadata",
          "type": "string"
        },
        {
          "internalType": "uint256",
          "name": "deedId",
          "type": "uint256"
        },
        {
          "internalType": "address",
          "name": "deedRepositoryAddress",
          "type": "address"
        },
        {
          "internalType": "address payable",
          "name": "owner",
          "type": "address"
        },
        {
          "internalType": "bool",
          "name": "active",
          "type": "bool"
        },
        {
          "internalType": "bool",
          "name": "finalized",
          "type": "bool"
        }
      ],
      "stateMutability": "view",
      "type": "function",
      "constant": true
    },
    {
      "stateMutability": "payable",
      "type": "receive",
      "payable": true
    },
    {
      "inputs": [],
      "name": "getCount",
      "outputs": [
        {
          "internalType": "uint256",
          "name": "",
          "type": "uint256"
        }
      ],
      "stateMutability": "view",
      "type": "function",
      "constant": true
    },
    {
      "inputs": [
        {
          "internalType": "uint256",
          "name": "_auctionId",
          "type": "uint256"
        }
      ],
      "name": "getBidsCount",
      "outputs": [
        {
          "internalType": "uint256",
          "name": "",
          "type": "uint256"
        }
      ],
      "stateMutability": "view",
      "type": "function",
      "constant": true
    },
    {
      "inputs": [
        {
          "internalType": "address",
          "name": "_owner",
          "type": "address"
        }
      ],
      "name": "getAuctionsOf",
      "outputs": [
        {
          "internalType": "uint256[]",
          "name": "",
          "type": "uint256[]"
        }
      ],
      "stateMutability": "view",
      "type": "function",
      "constant": true
    },
    {
      "inputs": [
        {
          "internalType": "uint256",
          "name": "_auctionId",
          "type": "uint256"
        }
      ],
      "name": "getCurrentBid",
      "outputs": [
        {
          "internalType": "uint256",
          "name": "",
          "type": "uint256"
        },
        {
          "internalType": "address",
          "name": "",
          "type": "address"
        }
      ],
      "stateMutability": "view",
      "type": "function",
      "constant": true
    },
    {
      "inputs": [
        {
          "internalType": "address",
          "name": "_owner",
          "type": "address"
        }
      ],
      "name": "getAuctionsCountOfOwner",
      "outputs": [
        {
          "internalType": "uint256",
          "name": "",
          "type": "uint256"
        }
      ],
      "stateMutability": "view",
      "type": "function",
      "constant": true
    },
    {
      "inputs": [
        {
          "internalType": "uint256",
          "name": "_auctionId",
          "type": "uint256"
        }
      ],
      "name": "getAuctionById",
      "outputs": [
        {
          "internalType": "string",
          "name": "",
          "type": "string"
        },
        {
          "internalType": "uint256",
          "name": "",
          "type": "uint256"
        },
        {
          "internalType": "uint256",
          "name": "",
          "type": "uint256"
        },
        {
          "internalType": "string",
          "name": "",
          "type": "string"
        },
        {
          "internalType": "uint256",
          "name": "",
          "type": "uint256"
        },
        {
          "internalType": "address",
          "name": "",
          "type": "address"
        },
        {
          "internalType": "address",
          "name": "",
          "type": "address"
        },
        {
          "internalType": "bool",
          "name": "",
          "type": "bool"
        },
        {
          "internalType": "bool",
          "name": "",
          "type": "bool"
        }
      ],
      "stateMutability": "view",
      "type": "function",
      "constant": true
    },
    {
      "inputs": [
        {
          "internalType": "address",
          "name": "_deedRepositoryAddress",
          "type": "address"
        },
        {
          "internalType": "uint256",
          "name": "_deedId",
          "type": "uint256"
        },
        {
          "internalType": "string",
          "name": "_auctionTitle",
          "type": "string"
        },
        {
          "internalType": "string",
          "name": "_metadata",
          "type": "string"
        },
        {
          "internalType": "uint256",
          "name": "_startPrice",
          "type": "uint256"
        },
        {
          "internalType": "uint256",
          "name": "_blockDeadline",
          "type": "uint256"
        }
      ],
      "name": "createAuction",
      "outputs": [
        {
          "internalType": "bool",
          "name": "",
          "type": "bool"
        }
      ],
      "stateMutability": "nonpayable",
      "type": "function"
    },
    {
      "inputs": [
        {
          "internalType": "uint256",
          "name": "_auctionId",
          "type": "uint256"
        }
      ],
      "name": "finalizeAuction",
      "outputs": [],
      "stateMutability": "nonpayable",
      "type": "function"
    },
    {
      "inputs": [
        {
          "internalType": "uint256",
          "name": "_auctionId",
          "type": "uint256"
        }
      ],
      "name": "bidOnAuction",
      "outputs": [],
      "stateMutability": "payable",
      "type": "function",
      "payable": true
    }
  ],
  "bytecode": "0x608060405234801561000f575f80fd5b506118508061001d5f395ff3fe6080604052600436106100a8575f3560e01c8063b1b61bfa11610062578063b1b61bfa146101f9578063c8756cda14610225578063d56aa55814610244578063da4e364f14610278578063e1b96581146102b4578063e8083863146102e3575f80fd5b806318111ada146100fe57806326b7aeea1461013b5780634008f9c014610150578063571a26a0146101895780635f93de49146101a8578063a87d942c146101e6575f80fd5b366100fa5760405162461bcd60e51b815260206004820152601b60248201527f446972656374207061796d656e7473206e6f7420616c6c6f776564000000000060448201526064015b60405180910390fd5b5f80fd5b348015610109575f80fd5b5061011d6101183660046113cd565b610302565b60405161013299989796959493929190611427565b60405180910390f35b61014e6101493660046113cd565b610556565b005b34801561015b575f80fd5b5061017b61016a3660046113cd565b5f9081526001602052604090205490565b604051908152602001610132565b348015610194575f80fd5b5061011d6101a33660046113cd565b6108a0565b3480156101b3575f80fd5b506101c76101c2366004611496565b610a1c565b604080516001600160a01b039093168352602083019190915201610132565b3480156101f1575f80fd5b505f5461017b565b348015610204575f80fd5b506102186102133660046114cd565b610a5e565b60405161013291906114ef565b348015610230575f80fd5b5061017b61023f366004611532565b610ac7565b34801561024f575f80fd5b5061017b61025e3660046114cd565b6001600160a01b03165f9081526002602052604090205490565b348015610283575f80fd5b506102976102923660046113cd565b610af2565b604080519283526001600160a01b03909116602083015201610132565b3480156102bf575f80fd5b506102d36102ce3660046115f9565b610b7d565b6040519015158152602001610132565b3480156102ee575f80fd5b5061014e6102fd3660046113cd565b610de2565b60605f8060605f805f805f805f8b8154811061032057610320611685565b905f5260205f209060070201604051806101200160405290815f8201805461034790611699565b80601f016020809104026020016040519081016040528092919081815260200182805461037390611699565b80156103be5780601f10610395576101008083540402835291602001916103be565b820191905f5260205f20905b8154815290600101906020018083116103a157829003601f168201915b5050505050815260200160018201548152602001600282015481526020016003820180546103eb90611699565b80601f016020809104026020016040519081016040528092919081815260200182805461041790611699565b80156104625780601f1061043957610100808354040283529160200191610462565b820191905f5260205f20905b81548152906001019060200180831161044557829003601f168201915b5050505050815260200160048201548152602001600582015f9054906101000a90046001600160a01b03166001600160a01b03166001600160a01b03168152602001600682015f9054906101000a90046001600160a01b03166001600160a01b03166001600160a01b031681526020016006820160149054906101000a900460ff161515151581526020016006820160159054906101000a900460ff1615151515815250509050805f015181602001518260400151836060015184608001518560a001518660c001518760e00151886101000151995099509950995099509950995099509950509193959799909294969850565b5f80828154811061056957610569611685565b905f5260205f20906007020190508060060160149054906101000a900460ff166105cd5760405162461bcd60e51b815260206004820152601560248201527441756374696f6e206973206e6f742061637469766560581b60448201526064016100f1565b80600101544211156106135760405162461bcd60e51b815260206004820152600f60248201526e105d58dd1a5bdb88195e1c1a5c9959608a1b60448201526064016100f1565b60068101546001600160a01b031633036106625760405162461bcd60e51b815260206004820152601060248201526f13dddb995c8818d85b9b9bdd08189a5960821b60448201526064016100f1565b5f82815260016020526040902054600282015434919081156107c5575f85815260016020819052604082209061069890856116d1565b815481106106a8576106a8611685565b5f9182526020918290206040805180820190915260029092020180546001600160a01b0316825260010154918101829052909250905081841161071b5760405162461bcd60e51b815260206004820152600b60248201526a42696420746f6f206c6f7760a81b60448201526064016100f1565b805160208201516040515f926001600160a01b031691908381818185875af1925050503d805f8114610768576040519150601f19603f3d011682016040523d82523d5f602084013e61076d565b606091505b50509050806107be5760405162461bcd60e51b815260206004820181905260248201527f526566756e6420746f2070726576696f757320626964646572206661696c656460448201526064016100f1565b5050610815565b808310156108155760405162461bcd60e51b815260206004820152601860248201527f4269642062656c6f77207374617274696e67207072696365000000000000000060448201526064016100f1565b5f85815260016020818152604080842081518083018352338082528185018a8152835480880185559388529487209151600290930290910180546001600160a01b0319166001600160a01b039093169290921782559251930192909255905187927f5762e6a7d331cd17a1761e94de3ea3b85e90ee6cdd9d1204e361cc650689d46391a35050505050565b5f81815481106108ae575f80fd5b905f5260205f2090600702015f91509050805f0180546108cd90611699565b80601f01602080910402602001604051908101604052809291908181526020018280546108f990611699565b80156109445780601f1061091b57610100808354040283529160200191610944565b820191905f5260205f20905b81548152906001019060200180831161092757829003601f168201915b50505050509080600101549080600201549080600301805461096590611699565b80601f016020809104026020016040519081016040528092919081815260200182805461099190611699565b80156109dc5780601f106109b3576101008083540402835291602001916109dc565b820191905f5260205f20905b8154815290600101906020018083116109bf57829003601f168201915b50505060048401546005850154600690950154939490936001600160a01b039182169350908116915060ff600160a01b8204811691600160a81b90041689565b6001602052815f5260405f208181548110610a35575f80fd5b5f918252602090912060029091020180546001909101546001600160a01b039091169250905082565b6001600160a01b0381165f90815260026020908152604091829020805483518184028101840190945280845260609392830182828015610abb57602002820191905f5260205f20905b815481526020019060010190808311610aa7575b50505050509050919050565b6002602052815f5260405f208181548110610ae0575f80fd5b905f5260205f20015f91509150505481565b5f8181526001602052604081205481908015610b72575f848152600160208190526040822090610b2290846116d1565b81548110610b3257610b32611685565b5f9182526020918290206040805180820190915260029092020180546001600160a01b031680835260019091015491909201819052969095509350505050565b505f93849350915050565b5f86865f826001600160a01b0316636352211e836040518263ffffffff1660e01b8152600401610baf91815260200190565b602060405180830381865afa158015610bca573d5f803e3d5ffd5b505050506040513d601f19601f82011682018060405250810190610bee91906116f6565b90506001600160a01b0381163014610c485760405162461bcd60e51b815260206004820152601760248201527f436f6e7472616374206e6f742064656564206f776e657200000000000000000060448201526064016100f1565b5f805460408051610120810182528b815260208101899052908101899052606081018a9052608081018c90526001600160a01b038d1660a08201523360c0820152600160e0820181905261010082018490528201835591805281519091908190600784027f290decd9548b62a8d60345a988386fc84ba6bc95484008f6362f93160ef3e56301908190610cdb908261175e565b50602082015160018201556040820151600282015560608201516003820190610d04908261175e565b506080820151600482015560a08201516005820180546001600160a01b0319166001600160a01b0392831617905560c08301516006909201805460e085015161010090950151939092166001600160a81b031990921691909117600160a01b931515939093029290921760ff60a81b1916600160a81b91151591909102179055335f8181526002602090815260408083208054600181018255908452918320909101859055518492917f3249a06bd478adf780bb7930214ad005e9cfa517d63221c0b77f27199d1a58b391a35060019b9a5050505050505050505050565b5f808281548110610df557610df5611685565b5f918252602080832085845260019182905260409093205460079092029092019182015491925090421015610e645760405162461bcd60e51b8152602060048201526015602482015274105d58dd1a5bdb881b9bdd081e595d08195b991959605a1b60448201526064016100f1565b6006820154600160a01b900460ff168015610e8b57506006820154600160a81b900460ff16155b610ecb5760405162461bcd60e51b8152602060048201526011602482015270105b1c9958591e48199a5b985b1a5e9959607a1b60448201526064016100f1565b805f03610ee057610edb83611096565b505050565b5f838152600160208190526040822090610efa90846116d1565b81548110610f0a57610f0a611685565b5f918252602080832060408051808201825260029490940290910180546001600160a01b0390811685526001909101549284018390526006880154915193955016918381818185875af1925050503d805f8114610f82576040519150601f19603f3d011682016040523d82523d5f602084013e610f87565b606091505b5050905080610fd85760405162461bcd60e51b815260206004820181905260248201527f5472616e7366657220746f2061756374696f6e206f776e6572206661696c656460448201526064016100f1565b8151600585015460048601545f92610ffd9230926001600160a01b03909116906112fb565b90508061104c5760405162461bcd60e51b815260206004820152601d60248201527f4e4654207472616e7366657220746f2077696e6e6572206661696c656400000060448201526064016100f1565b60068501805461ffff60a01b1916600160a81b179055604051869033907f357afab190ee87fe0ef1c717f2728d2904d9e415a069d99f4d9382873cb3279d905f90a3505050505050565b80336001600160a01b03165f82815481106110b3576110b3611685565b5f9182526020909120600660079092020101546001600160a01b0316146111105760405162461bcd60e51b81526020600482015260116024820152702737ba1030bab1ba34b7b71037bbb732b960791b60448201526064016100f1565b5f80838154811061112357611123611685565b5f9182526020808320868452600190915260409092205460079091029091019150801561123e575f84815260016020819052604082209061116490846116d1565b8154811061117457611174611685565b5f918252602080832060408051808201825260029490940290910180546001600160a01b03168085526001909101549284018390529051929450918381818185875af1925050503d805f81146111e5576040519150601f19603f3d011682016040523d82523d5f602084013e6111ea565b606091505b505090508061123b5760405162461bcd60e51b815260206004820152601c60248201527f526566756e6420746f206c61737420626964646572206661696c65640000000060448201526064016100f1565b50505b6006820154600583015460048401545f9261126a9230926001600160a01b0392831692909116906112fb565b9050806112b95760405162461bcd60e51b815260206004820152601d60248201527f5472616e73666572206261636b20746f206f776e6572206661696c656400000060448201526064016100f1565b60068301805460ff60a01b19169055604051859033907f39e6c898ce035bbacd9ba4f9753534f8c9f976e0ff70be83cfe887f235afa1d3905f90a35050505050565b60405163095ea7b360e01b81526001600160a01b038481166004830152602482018390525f91849182169063095ea7b3906044015f604051808303815f87803b158015611346575f80fd5b505af1158015611358573d5f803e3d5ffd5b50506040516323b872dd60e01b81526001600160a01b038981166004830152888116602483015260448201879052841692506323b872dd91506064015f604051808303815f87803b1580156113ab575f80fd5b505af11580156113bd573d5f803e3d5ffd5b5060019998505050505050505050565b5f602082840312156113dd575f80fd5b5035919050565b5f81518084525f5b81811015611408576020818501810151868301820152016113ec565b505f602082860101526020601f19601f83011685010191505092915050565b5f61012080835261143a8184018d6113e4565b90508a6020840152896040840152828103606084015261145a818a6113e4565b608084019890985250506001600160a01b0394851660a08201529290931660c0830152151560e082015290151561010090910152949350505050565b5f80604083850312156114a7575f80fd5b50508035926020909101359150565b6001600160a01b03811681146114ca575f80fd5b50565b5f602082840312156114dd575f80fd5b81356114e8816114b6565b9392505050565b602080825282518282018190525f9190848201906040850190845b818110156115265783518352928401929184019160010161150a565b50909695505050505050565b5f8060408385031215611543575f80fd5b823561154e816114b6565b946020939093013593505050565b634e487b7160e01b5f52604160045260245ffd5b5f82601f83011261157f575f80fd5b813567ffffffffffffffff8082111561159a5761159a61155c565b604051601f8301601f19908116603f011681019082821181831017156115c2576115c261155c565b816040528381528660208588010111156115da575f80fd5b836020870160208301375f602085830101528094505050505092915050565b5f805f805f8060c0878903121561160e575f80fd5b8635611619816114b6565b955060208701359450604087013567ffffffffffffffff8082111561163c575f80fd5b6116488a838b01611570565b9550606089013591508082111561165d575f80fd5b5061166a89828a01611570565b9350506080870135915060a087013590509295509295509295565b634e487b7160e01b5f52603260045260245ffd5b600181811c908216806116ad57607f821691505b6020821081036116cb57634e487b7160e01b5f52602260045260245ffd5b50919050565b818103818111156116f057634e487b7160e01b5f52601160045260245ffd5b92915050565b5f60208284031215611706575f80fd5b81516114e8816114b6565b601f821115610edb575f81815260208120601f850160051c810160208610156117375750805b601f850160051c820191505b8181101561175657828155600101611743565b505050505050565b815167ffffffffffffffff8111156117785761177861155c565b61178c816117868454611699565b84611711565b602080601f8311600181146117bf575f84156117a85750858301515b5f19600386901b1c1916600185901b178555611756565b5f85815260208120601f198616915b828110156117ed578886015182559484019460019091019084016117ce565b508582101561180a57878501515f19600388901b60f8161c191681555b5050505050600190811b0190555056fea2646970667358221220813838068f056e5034bb54eaa400501162af5211823dc402ff5a98cfc595406f64736f6c63430008140033",
  "immutableReferences": {},
  "source": "// SPDX-License-Identifier: MIT\r\npragma solidity ^0.8.20;\r\n\r\nimport \"./DeedRepository.sol\";\r\n\r\ncontract AuctionRepository {\r\n    struct Bid {\r\n        address payable from;\r\n        uint256 amount;\r\n    }\r\n\r\n    struct Auction {\r\n        string name;\r\n        uint256 blockDeadline;\r\n        uint256 startPrice;\r\n        string metadata;\r\n        uint256 deedId;\r\n        address deedRepositoryAddress;\r\n        address payable owner;\r\n        bool active;\r\n        bool finalized;\r\n    }\r\n\r\n    Auction[] public auctions;\r\n    mapping(uint256 => Bid[]) public auctionBids;\r\n    mapping(address => uint256[]) public auctionOwner;\r\n\r\n    modifier isOwner(uint256 _auctionId) {\r\n        require(auctions[_auctionId].owner == msg.sender, \"Not auction owner\");\r\n        _;\r\n    }\r\n\r\n    modifier contractIsDeedOwner(address _deedRepositoryAddress, uint256 _deedId) {\r\n        address deedOwner = DeedRepository(_deedRepositoryAddress).ownerOf(_deedId);\r\n        require(deedOwner == address(this), \"Contract not deed owner\");\r\n        _;\r\n    }\r\n\r\n    receive() external payable {\r\n        revert(\"Direct payments not allowed\");\r\n    }\r\n\r\n    function getCount() external view returns (uint256) {\r\n        return auctions.length;\r\n    }\r\n\r\n    function getBidsCount(uint256 _auctionId) external view returns (uint256) {\r\n        return auctionBids[_auctionId].length;\r\n    }\r\n\r\n    function getAuctionsOf(address _owner) external view returns (uint256[] memory) {\r\n        return auctionOwner[_owner];\r\n    }\r\n\r\n    function getCurrentBid(uint256 _auctionId) external view returns (uint256, address) {\r\n        uint256 bidsLength = auctionBids[_auctionId].length;\r\n        if (bidsLength > 0) {\r\n            Bid memory lastBid = auctionBids[_auctionId][bidsLength - 1];\r\n            return (lastBid.amount, lastBid.from);\r\n        }\r\n        return (0, address(0));\r\n    }\r\n\r\n    function getAuctionsCountOfOwner(address _owner) external view returns (uint256) {\r\n        return auctionOwner[_owner].length;\r\n    }\r\n\r\n    function getAuctionById(uint256 _auctionId)\r\n        external\r\n        view\r\n        returns (\r\n            string memory,\r\n            uint256,\r\n            uint256,\r\n            string memory,\r\n            uint256,\r\n            address,\r\n            address,\r\n            bool,\r\n            bool\r\n        )\r\n    {\r\n        Auction memory auc = auctions[_auctionId];\r\n        return (\r\n            auc.name,\r\n            auc.blockDeadline,\r\n            auc.startPrice,\r\n            auc.metadata,\r\n            auc.deedId,\r\n            auc.deedRepositoryAddress,\r\n            auc.owner,\r\n            auc.active,\r\n            auc.finalized\r\n        );\r\n    }\r\n\r\n    function createAuction(\r\n        address _deedRepositoryAddress,\r\n        uint256 _deedId,\r\n        string memory _auctionTitle,\r\n        string memory _metadata,\r\n        uint256 _startPrice,\r\n        uint256 _blockDeadline\r\n    )\r\n        external\r\n        contractIsDeedOwner(_deedRepositoryAddress, _deedId)\r\n        returns (bool)\r\n    {\r\n        uint256 auctionId = auctions.length;\r\n        Auction memory newAuction = Auction({\r\n            name: _auctionTitle,\r\n            blockDeadline: _blockDeadline,\r\n            startPrice: _startPrice,\r\n            metadata: _metadata,\r\n            deedId: _deedId,\r\n            deedRepositoryAddress: _deedRepositoryAddress,\r\n            owner: payable(msg.sender),\r\n            active: true,\r\n            finalized: false\r\n        });\r\n\r\n        auctions.push(newAuction);\r\n        auctionOwner[msg.sender].push(auctionId);\r\n\r\n        emit AuctionCreated(msg.sender, auctionId);\r\n        return true;\r\n    }\r\n\r\n    function approveAndTransfer(\r\n        address _from,\r\n        address _to,\r\n        address _deedRepositoryAddress,\r\n        uint256 _deedId\r\n    ) internal returns (bool) {\r\n        DeedRepository remoteContract = DeedRepository(_deedRepositoryAddress);\r\n        remoteContract.approve(_to, _deedId);\r\n        remoteContract.transferFrom(_from, _to, _deedId);\r\n        return true;\r\n    }\r\n\r\n    function cancelAuction(uint256 _auctionId) internal isOwner(_auctionId) {\r\n        Auction storage myAuction = auctions[_auctionId];\r\n        uint256 bidsLength = auctionBids[_auctionId].length;\r\n\r\n        if (bidsLength > 0) {\r\n            Bid memory lastBid = auctionBids[_auctionId][bidsLength - 1];\r\n            (bool success, ) = lastBid.from.call{value: lastBid.amount}(\"\");\r\n            require(success, \"Refund to last bidder failed\");\r\n        }\r\n\r\n        bool transferred = approveAndTransfer(address(this), myAuction.owner, myAuction.deedRepositoryAddress, myAuction.deedId);\r\n        require(transferred, \"Transfer back to owner failed\");\r\n\r\n        myAuction.active = false;\r\n        emit AuctionCanceled(msg.sender, _auctionId);\r\n    }\r\n\r\n    function finalizeAuction(uint256 _auctionId) external {\r\n        Auction storage myAuction = auctions[_auctionId];\r\n        uint256 bidsLength = auctionBids[_auctionId].length;\r\n\r\n        require(block.timestamp >= myAuction.blockDeadline, \"Auction not yet ended\");\r\n        require(myAuction.active && !myAuction.finalized, \"Already finalized\");\r\n\r\n        if (bidsLength == 0) {\r\n            cancelAuction(_auctionId);\r\n            return;\r\n        }\r\n\r\n        Bid memory lastBid = auctionBids[_auctionId][bidsLength - 1];\r\n        (bool success, ) = myAuction.owner.call{value: lastBid.amount}(\"\");\r\n        require(success, \"Transfer to auction owner failed\");\r\n\r\n        bool transferred = approveAndTransfer(address(this), lastBid.from, myAuction.deedRepositoryAddress, myAuction.deedId);\r\n        require(transferred, \"NFT transfer to winner failed\");\r\n\r\n        myAuction.active = false;\r\n        myAuction.finalized = true;\r\n        emit AuctionFinalized(msg.sender, _auctionId);\r\n    }\r\n\r\n    function bidOnAuction(uint256 _auctionId) external payable {\r\n        Auction storage myAuction = auctions[_auctionId];\r\n\r\n        require(myAuction.active, \"Auction is not active\");\r\n        require(block.timestamp <= myAuction.blockDeadline, \"Auction expired\");\r\n        require(msg.sender != myAuction.owner, \"Owner cannot bid\");\r\n\r\n        uint256 ethAmountSent = msg.value;\r\n        uint256 bidsLength = auctionBids[_auctionId].length;\r\n        uint256 currentPrice = myAuction.startPrice;\r\n\r\n        if (bidsLength > 0) {\r\n            Bid memory lastBid = auctionBids[_auctionId][bidsLength - 1];\r\n            currentPrice = lastBid.amount;\r\n\r\n            require(ethAmountSent > currentPrice, \"Bid too low\");\r\n\r\n            (bool refundSuccess, ) = lastBid.from.call{value: lastBid.amount}(\"\");\r\n            require(refundSuccess, \"Refund to previous bidder failed\");\r\n        } else {\r\n            require(ethAmountSent >= currentPrice, \"Bid below starting price\");\r\n        }\r\n\r\n        auctionBids[_auctionId].push(Bid({\r\n            from: payable(msg.sender),\r\n            amount: ethAmountSent\r\n        }));\r\n\r\n        emit BidSuccess(msg.sender, _auctionId);\r\n    }\r\n\r\n    event BidSuccess(address indexed from, uint256 indexed auctionId);\r\n    event AuctionCreated(address indexed owner, uint256 indexed auctionId);\r\n    event AuctionCanceled(address indexed owner, uint256 indexed auctionId);\r\n    event AuctionFinalized(address indexed sender, uint256 indexed auctionId);\r\n}\r\n",
  "sourcePath": "F:\\Workplace\\Mastering_Ethereum\\ch12\\auction_dapp\\backend\\contracts\\AuctionRepository.sol",
  "compiler": {
    "name": "solc",
    "version": "0.8.20+commit.a1b79de6.Emscripten.clang"
  },
  "schemaVersion": "3.4.16",
  "updatedAt": "2025-05-22T02:31:06.563Z",
  "networkType": "ethereum",
  "devdoc": {
    "kind": "dev",
    "methods": {},
    "version": 1
  },
  "userdoc": {
    "kind": "user",
    "methods": {},
    "version": 1
  }
}