{
  "contractName": "Faucet",
  "abi": [
    {
      "anonymous": false,
      "inputs": [
        {
          "indexed": true,
          "internalType": "address",
          "name": "from",
          "type": "address"
        },
        {
          "indexed": false,
          "internalType": "uint256",
          "name": "amount",
          "type": "uint256"
        }
      ],
      "name": "Deposit",
      "type": "event"
    },
    {
      "anonymous": false,
      "inputs": [
        {
          "indexed": true,
          "internalType": "address",
          "name": "to",
          "type": "address"
        },
        {
          "indexed": false,
          "internalType": "uint256",
          "name": "amount",
          "type": "uint256"
        }
      ],
      "name": "Withdrawal",
      "type": "event"
    },
    {
      "inputs": [],
      "name": "destroy",
      "outputs": [],
      "stateMutability": "nonpayable",
      "type": "function"
    },
    {
      "inputs": [],
      "name": "isActive",
      "outputs": [
        {
          "internalType": "bool",
          "name": "",
          "type": "bool"
        }
      ],
      "stateMutability": "view",
      "type": "function",
      "constant": true
    },
    {
      "stateMutability": "payable",
      "type": "receive",
      "payable": true
    },
    {
      "inputs": [
        {
          "internalType": "uint256",
          "name": "withdraw_amount",
          "type": "uint256"
        }
      ],
      "name": "withdraw",
      "outputs": [],
      "stateMutability": "nonpayable",
      "type": "function"
    }
  ],
  "bytecode": "0x608060405260015f60146101000a81548160ff021916908315150217905550348015610029575f80fd5b50335f806101000a81548173ffffffffffffffffffffffffffffffffffffffff021916908373ffffffffffffffffffffffffffffffffffffffff160217905550610675806100765f395ff3fe608060405260043610610037575f3560e01c806322f3e2d4146100905780632e1a7d4d146100ba57806383197ef0146100e25761008c565b3661008c573373ffffffffffffffffffffffffffffffffffffffff167fe1fffcc4923d04b559f4d29a8bfc6cda04eb5b0d3c460751c2402c5c5cc9109c34604051610082919061039e565b60405180910390a2005b5f80fd5b34801561009b575f80fd5b506100a46100f8565b6040516100b191906103d1565b60405180910390f35b3480156100c5575f80fd5b506100e060048036038101906100db9190610418565b61010a565b005b3480156100ed575f80fd5b506100f661027b565b005b5f60149054906101000a900460ff1681565b5f60149054906101000a900460ff16610158576040517f08c379a000000000000000000000000000000000000000000000000000000000815260040161014f9061049d565b60405180910390fd5b67016345785d8a00008111156101a3576040517f08c379a000000000000000000000000000000000000000000000000000000000815260040161019a90610505565b60405180910390fd5b804710156101e6576040517f08c379a00000000000000000000000000000000000000000000000000000000081526004016101dd90610593565b60405180910390fd5b3373ffffffffffffffffffffffffffffffffffffffff166108fc8290811502906040515f60405180830381858888f19350505050158015610229573d5f803e3d5ffd5b503373ffffffffffffffffffffffffffffffffffffffff167f7fcf532c15f0a6db0bd6d0e038bea71d30d808c7d98cb3bf7268a95bf5081b6582604051610270919061039e565b60405180910390a250565b5f8054906101000a900473ffffffffffffffffffffffffffffffffffffffff1673ffffffffffffffffffffffffffffffffffffffff163373ffffffffffffffffffffffffffffffffffffffff1614610308576040517f08c379a00000000000000000000000000000000000000000000000000000000081526004016102ff90610621565b60405180910390fd5b5f8060146101000a81548160ff0219169083151502179055505f8054906101000a900473ffffffffffffffffffffffffffffffffffffffff1673ffffffffffffffffffffffffffffffffffffffff166108fc4790811502906040515f60405180830381858888f19350505050158015610383573d5f803e3d5ffd5b50565b5f819050919050565b61039881610386565b82525050565b5f6020820190506103b15f83018461038f565b92915050565b5f8115159050919050565b6103cb816103b7565b82525050565b5f6020820190506103e45f8301846103c2565b92915050565b5f80fd5b6103f781610386565b8114610401575f80fd5b50565b5f81359050610412816103ee565b92915050565b5f6020828403121561042d5761042c6103ea565b5b5f61043a84828501610404565b91505092915050565b5f82825260208201905092915050565b7f436f6e7472616374206973206e6f206c6f6e67657220616374697665000000005f82015250565b5f610487601c83610443565b915061049282610453565b602082019050919050565b5f6020820190508181035f8301526104b48161047b565b9050919050565b7f5769746864726177616c2065786365656473206c696d697400000000000000005f82015250565b5f6104ef601883610443565b91506104fa826104bb565b602082019050919050565b5f6020820190508181035f83015261051c816104e3565b9050919050565b7f496e73756666696369656e742062616c616e636520696e2066617563657420665f8201527f6f72207769746864726177616c20726571756573740000000000000000000000602082015250565b5f61057d603583610443565b915061058882610523565b604082019050919050565b5f6020820190508181035f8301526105aa81610571565b9050919050565b7f4f6e6c792074686520636f6e7472616374206f776e65722063616e2063616c6c5f8201527f20746869732066756e6374696f6e000000000000000000000000000000000000602082015250565b5f61060b602e83610443565b9150610616826105b1565b604082019050919050565b5f6020820190508181035f830152610638816105ff565b905091905056fea26469706673582212206fafbfbc7902c40bb85fd0b719f74c90daa43bb9d6c2c28bdb06a6e2dc2aca8864736f6c63430008140033",
  "immutableReferences": {},
  "source": "// SPDX-License-Identifier: CC-BY-SA-4.0\r\n\r\npragma solidity ^0.8.0;\r\n\r\ncontract Owned {\r\n    address payable owner;\r\n\r\n    // Contract constructor: set owner\r\n    constructor() {\r\n        owner = payable(msg.sender);\r\n    }\r\n\r\n    // Access control modifier\r\n    modifier onlyOwner {\r\n        require(msg.sender == owner, \"Only the contract owner can call this function\");\r\n        _;\r\n    }\r\n}\r\n\r\ncontract Mortal is Owned {\r\n    bool public isActive = true;\r\n\r\n    modifier contractIsActive() {\r\n        require(isActive, \"Contract is no longer active\");\r\n        _;\r\n    }\r\n\r\n    function destroy() public onlyOwner {\r\n        isActive = false;\r\n        // optionally: transfer ETH out\r\n        owner.transfer(address(this).balance);\r\n    }\r\n}\r\n\r\ncontract Faucet is Mortal {\r\n    event Withdrawal(address indexed to, uint amount);\r\n    event Deposit(address indexed from, uint amount);\r\n\r\n    // Accept any incoming amount\r\n    receive() external payable {\r\n        emit Deposit(msg.sender, msg.value);\r\n    }\r\n\r\n    // Give out ether to anyone who asks\r\n    function withdraw(uint withdraw_amount) public contractIsActive {\r\n        // Limit withdrawal amount\r\n        require(withdraw_amount <= 0.1 ether, \"Withdrawal exceeds limit\");\r\n\r\n        require(\r\n            address(this).balance >= withdraw_amount,\r\n            \"Insufficient balance in faucet for withdrawal request\"\r\n        );\r\n\r\n        // Send the amount to the address that requested it\r\n        payable(msg.sender).transfer(withdraw_amount);\r\n\r\n        emit Withdrawal(msg.sender, withdraw_amount);\r\n    }\r\n}\r\n",
  "sourcePath": "C:\\Users\\eskim\\Workspace\\Mastering_Ethereum\\ch7\\gas_estimate\\contracts\\Faucet.sol",
  "compiler": {
    "name": "solc",
    "version": "0.8.20+commit.a1b79de6.Emscripten.clang"
  },
  "schemaVersion": "3.4.16",
  "updatedAt": "2025-04-16T12:55:06.501Z",
  "networkType": "ethereum",
  "devdoc": {
    "kind": "dev",
    "methods": {},
    "version": 1
  },
  "userdoc": {
    "kind": "user",
    "methods": {},
    "version": 1
  }
}