{
  "contractName": "Mortal",
  "abi": [
    {
      "inputs": [],
      "name": "isActive",
      "outputs": [
        {
          "internalType": "bool",
          "name": "",
          "type": "bool"
        }
      ],
      "stateMutability": "view",
      "type": "function"
    },
    {
      "inputs": [],
      "name": "destroy",
      "outputs": [],
      "stateMutability": "nonpayable",
      "type": "function"
    }
  ],
  "bytecode": "0x608060405260015f60146101000a81548160ff021916908315150217905550348015610029575f80fd5b50335f806101000a81548173ffffffffffffffffffffffffffffffffffffffff021916908373ffffffffffffffffffffffffffffffffffffffff160217905550610284806100765f395ff3fe608060405234801561000f575f80fd5b5060043610610034575f3560e01c806322f3e2d41461003857806383197ef014610056575b5f80fd5b610040610060565b60405161004d9190610197565b60405180910390f35b61005e610072565b005b5f60149054906101000a900460ff1681565b5f8054906101000a900473ffffffffffffffffffffffffffffffffffffffff1673ffffffffffffffffffffffffffffffffffffffff163373ffffffffffffffffffffffffffffffffffffffff16146100ff576040517f08c379a00000000000000000000000000000000000000000000000000000000081526004016100f690610230565b60405180910390fd5b5f8060146101000a81548160ff0219169083151502179055505f8054906101000a900473ffffffffffffffffffffffffffffffffffffffff1673ffffffffffffffffffffffffffffffffffffffff166108fc4790811502906040515f60405180830381858888f1935050505015801561017a573d5f803e3d5ffd5b50565b5f8115159050919050565b6101918161017d565b82525050565b5f6020820190506101aa5f830184610188565b92915050565b5f82825260208201905092915050565b7f4f6e6c792074686520636f6e7472616374206f776e65722063616e2063616c6c5f8201527f20746869732066756e6374696f6e000000000000000000000000000000000000602082015250565b5f61021a602e836101b0565b9150610225826101c0565b604082019050919050565b5f6020820190508181035f8301526102478161020e565b905091905056fea2646970667358221220c5674996300a2fde09a3397d44ba704b397a7259e6f52ec2013b233cf91d557864736f6c63430008140033",
  "immutableReferences": {},
  "source": "// SPDX-License-Identifier: CC-BY-SA-4.0\r\n\r\npragma solidity ^0.8.0;\r\n\r\ncontract Owned {\r\n    address payable owner;\r\n\r\n    // Contract constructor: set owner\r\n    constructor() {\r\n        owner = payable(msg.sender);\r\n    }\r\n\r\n    // Access control modifier\r\n    modifier onlyOwner {\r\n        require(msg.sender == owner, \"Only the contract owner can call this function\");\r\n        _;\r\n    }\r\n}\r\n\r\ncontract Mortal is Owned {\r\n    bool public isActive = true;\r\n\r\n    modifier contractIsActive() {\r\n        require(isActive, \"Contract is no longer active\");\r\n        _;\r\n    }\r\n\r\n    function destroy() public onlyOwner {\r\n        isActive = false;\r\n        // optionally: transfer ETH out\r\n        owner.transfer(address(this).balance);\r\n    }\r\n}\r\n\r\ncontract Faucet is Mortal {\r\n    event Withdrawal(address indexed to, uint amount);\r\n    event Deposit(address indexed from, uint amount);\r\n\r\n    // Accept any incoming amount\r\n    receive() external payable {\r\n        emit Deposit(msg.sender, msg.value);\r\n    }\r\n\r\n    // Give out ether to anyone who asks\r\n    function withdraw(uint withdraw_amount) public contractIsActive {\r\n        // Limit withdrawal amount\r\n        require(withdraw_amount <= 0.1 ether, \"Withdrawal exceeds limit\");\r\n\r\n        require(\r\n            address(this).balance >= withdraw_amount,\r\n            \"Insufficient balance in faucet for withdrawal request\"\r\n        );\r\n\r\n        // Send the amount to the address that requested it\r\n        payable(msg.sender).transfer(withdraw_amount);\r\n\r\n        emit Withdrawal(msg.sender, withdraw_amount);\r\n    }\r\n}\r\n",
  "sourcePath": "C:\\Users\\eskim\\Workspace\\Mastering_Ethereum\\ch7\\gas_estimate\\contracts\\Faucet.sol",
  "compiler": {
    "name": "solc",
    "version": "0.8.20+commit.a1b79de6.Emscripten.clang"
  },
  "schemaVersion": "3.4.16",
  "updatedAt": "2025-04-16T12:54:31.823Z",
  "devdoc": {
    "kind": "dev",
    "methods": {},
    "version": 1
  },
  "userdoc": {
    "kind": "user",
    "methods": {},
    "version": 1
  }
}